S01900005245414E494245585F3130305F733361372E7372656330
S214000000C09D0220ED9A0100F5910100CD34030059
S214000010FD9A0100FD9A0100FD9A01000000000013
S214000020000000000000000000000000FD9A010033
S214000030FD9A010000000000750A0400290B040068
S214000040554E0100554E0100212A0100610D0100A8
S214000050610D0100F9F90000F9F90000F9F9000056
S2140000600DC60000ADAA00004DAB0000C1A90000FF
S214000070ADAA00004DAB0000C1A90000ED8B00004A
S214000080758C0000E5DB0000DDD8000049D80000D4
S214000090EDD9000069110000FFFFFFFFFFFFFFFF23
S2140000A0FFFFFFFFFFFFFFFFFFFFFFFFFFFFFFFF5B
S2140000B0FFFFFFFFFFFFFFFFFFFFFFFFFFFFFFFF4B
S2140000C0FFFFFFFFFFFFFFFFFFFFFFFFFFFFFFFF3B
S2140000D0FFFFFFFFFFFFFFFFFFFFFFFFFFFFFFFF2B
S21400040049BF6FFFDFCFFFFFFCFF0F00FFFF0F00AE
S214000410FCFF0F00FFFF0F00FCFF0F00FFFF0F00A9
S214000420FFFFFFFFFFFFFFFFFFFFFFFFFFFFFFFFD7
S214000430FFFFFFFFFFFFFFFFFFFFFFFFFFFFFFFFC7
S214000440FFFFFFFFFFFFFFFFFFFFFFFFFFFFFFFFB7
S214000450FFFFFFFFFFFFFFFFFFFFFFFFFFFFFFFFA7
S214000460FFFFFFFFFFFFFFFFFFFFFFFFFFFFFFFF97
S214000470FFFFFFFFFFFFFFFFFFFFFFFFFFFFFFFF87
S214000480FFFFFFFFFFFFFFFFFFFFFFFFFFFFFFFF77
S214000490FFFFFFFFFFFFFFFFFFFFFFFFFFFFFFFF67
S2140004A0FFFFFFFFFFFFFFFFFFFFFFFFFFFFFFFF57
S2140004B0FFFFFFFFFFFFFFFFFFFFFFFFFFFFFFFF47
S2140004C0FFFFFFFFFFFFFFFFFFFFFFFFFFFFFFFF37
S2140004D0FFFFFFFFFFFFFFFFFFFFFFFFFFFFFFFF27
S2140004E0FFFFFFFFFFFFFFFFFFFFFFFFFFFFFFFF17
S2140004F0FFFFFFFFFFFFFFFFFFFFFFFFFFFFFFFF07
S214000500EC5B002021040700701200202208070080
S214000510B45B002031000408F05B0020B6002B30EE
S214000520345C002006212B30D85B0020010006003A
S214000530D45B002002000608C05C002009000640CC
S214000540DC5B00204A002810C85B002080091410DD
S214000550D05B002082091420CC5B0020810914287F
S214000560E05B0020860D1410E85B0020880D142048
S214000570E45B0020870D142874120020C7013400A5
S21400058078120020C9013408B4120020BF011600FA
S214000590AC120020BC011610B8120020C0011618BC
S2140005A0B0120020BD011620185B00206100331039
S2140005B0200000002F0000002F0001000C000100AA
S2140005C0110000003000000024000000240001009C
S2140005D025000000250001001300000017000000A1
S2140005E02300000021000000210001000700000099
S2140005F007000100070002000700030012000000C9
S214000600080000000B000000040000002B000000A3
S2140006102B0001002B0002002B0003002B0004001F
S2140006202B0005002B0006002B0007002B000800FF
S2140006302B0009000600000006000A0006000B005A
S21400064006000C0006000D0006000E0006000F0057
S2140006500600010006000200060003000600040073
S2140006600600050006000600060007000600080053
S2140006700600090015000000150001001500020024
S214000680310000002A0000001000000003010000F6
S21400069003000000030001000F0000000D00000032
S2140006A0260000002D0000002C0000002C00010099
S2140006B02C0002002C00030032000000280000007E
S2140006C018000000140000001400010014000200CE
S2140006D01400030014000400140009003400000095
S2140006E01900000016000000160001003600000089
S2140006F03600010022000000330000002900000040
S21400070010B5054C237833B9044B13B10448AFF346
S21400071000800123237010BD281100200000000077
S2140007203C620500084B10B51BB108480849AFF3FA
S21400073000800848036803B910BD074B002BFBD0A8
S214000740BDE81040184700BF000000003C620500EE
S2140007502C1100207C1000200000000080B594B012
S21400076000AF786039607B68BB64BB6C93F8303050
S214000770012B01D10E23ABE000237B6407F10C03B1
S21400078000221A60043300221A60043300221A6022
S214000790043300221A60043300221A600433002255
S2140007A01A60043300221A60043300221A600433ED
S2140007B000221A6004331C23FB643B681A68BB6C77
S2140007C01A603B689A88BB6C9A803B689A79BB6CC7
S2140007D09A71BB6C002283F831203B689B6807F156
S2140007E00C021046194624224AF044FC3A4B7B621F
S2140007F0BB6CBB623B681B681B783B7333E0002313
S2140008003B64EFF31083FB63FB6B3B640123BB632A
S214000810BB6B83F31088BB6C1B68DB682F4A934264
S21400082013D0BB6C1B680C3318462D4901223423A9
S2140008303EF06EFAF864FB6C002B06D03B6C7B63D4
S2140008407B6B83F31088642342E03B6C3B633B6B1B
S21400085083F31088BB6C1B680C3318464FF0FF31CF
S2140008603EF0C2FAF864FB6C002BC8D107F10C030B
S214000870B86C39681A4600F0EDFB78647B6C002B88
S21400088001D07B6C24E0BB6C1B6893F850200132CF
S214000890D2B283F85020BB6C1B680C3318463EF06F
S2140008A0CDFABB6C03F1080207F10C03104619469B
S2140008B024224AF0DFFBBB6C012283F83020BB6C9D
S2140008C09A88BB6C9B791046194600F071FB7B6CCE
S2140008D018465037BD4680BD390F00004554554D6B
S2140008E070EF040090B589B000AFF860B9607A6028
S2140008F0FB70FB68BB610023FB6100237B61BB6967
S21400090093F83030012B01D0072339E0BB691B6810
S2140009109B681846396B3EF067FA78617B69002B56
S21400092001D064232CE0B86900F016FAF861FB6980
S214000930002B07D0BB691B689B6818463EF07EFA02
S214000940FB691DE0BB691B68DB6C5C68BB69DA6A27
S214000950FB781046B9687A68A047F861FB69002BF7
S21400096004D1B869396B00F039FAF861B86900F05B
S214000970B5FABB691B689B6818463EF05FFAFB69D0
S21400098018462437BD4690BD90B589B000AFF860D4
S214000990B9607A60FB70FB68BB610023FB610023D3
S2140009A07B61BB6993F83030012B01D0072339E017
S2140009B0BB691B689B681846396B3EF015FA786170
S2140009C07B69002B01D064232CE0B86900F0C4F9E1
S2140009D0F861FB69002B07D0BB691B689B6818464B
S2140009E03EF02CFAFB691DE0BB691B68DB6C9C685B
S2140009F0BB69DA6AFB781046B9687A68A047F8617E
S214000A00FB69002B04D1B869396B00F0E7F9F8618F
S214000A10B86900F063FABB691B689B6818463EF02D
S214000A200DFAFB6918462437BD4690BD90B58BB0CD
S214000A3002AFF860B9607A603B60FB68BB61002378
S214000A40FB6100237B61BB6993F83030012B01D03A
S214000A5007233CE0BB691B689B681846796B3EF031
S214000A60C3F978617B69002B01D064232FE0B86955
S214000A7000F072F9F861FB69002B07D0BB691B68B0
S214000A809B6818463EF0DAF9FB6920E0BB691B68F4
S214000A90DB6CDC68BB69DA6A97F830300093104686
S214000AA0B9687A683B68A047F861FB69002B04D1F7
S214000AB0B869796B00F092F9F861B86900F00EFA3F
S214000AC0BB691B689B6818463EF0B8F9FB69184678
S214000AD02437BD4690BD00BF80B586B000AF7860B5
S214000AE07B687B6100233B617B6993F83030012B88
S214000AF001D0072348E07B691B680C3318464FF08B
S214000B00FF313EF071F97B691B6893F85030012B7A
S214000B1027D17B691B685B6C1B68FB607B691B6865
S214000B20DB6C1B69FA68D26A104698477B691B68BB
S214000B309B6818463EF042F97B691B681B6C18469A
S214000B403EF098F87B691B6893F85020013AD2B2C1
S214000B5083F850207B691B680C3318463EF02EF94C
S214000B600DE07B691B6893F85020013AD2B283F8F7
S214000B7050207B691B680C3318463EF05FF97B6992
S214000B80002283F830203B6918461837BD4680BDE2
S214000B9080B586B000AF78607B687B6100233B61E0
S214000BA00023FB607B6993F83030012B01D00723CC
S214000BB020E07B691B689B68184600213EF014F90C
S214000BC0F860FB68002B01D0082313E0786900F07A
S214000BD0C3F838613B69002B07D07B691B689B68AC
S214000BE018463EF02BF93B6904E07B69012283F846
S214000BF031203B6918461837BD4680BD80B584B0A5
S214000C0000AF78607B68FB600023BB60FB6893F8EE
S214000C103030012B01D0072331E0FB681B689B684E
S214000C20184600213EF0E0F8B860BB68002B01D003
S214000C30082324E0FB681B689B689B68022B0BD18B
S214000C40FB68002283F83120FB689A88FB689B7952
S214000C501046194600F0ACF9FB681B689B681846FE
S214000C603EF0ECF8FB681B689B6818463EF0E6F81A
S214000C70B860BB68002B01D0082300E000231846AC
S214000C801037BD4680BD00BF80B483B000AF78602B
S214000C90054B1A687B681A60002318460C37BD4659
S214000CA05DF8047B704700BF48EF040080B586B04F
S214000CB000AF786039607B687B6100233B6100236E
S214000CC0FB607B6993F83030012B01D007233EE0B0
S214000CD07B691B689B68184639683EF085F8F860A3
S214000CE0FB68002B01D0142331E07B691B685B6C2A
S214000CF01A687B699A421DD0786900F007F9386156
S214000D003B69002B07D07B691B689B6818463EF042
S214000D1095F83B691BE0786900F068F938613B6933
S214000D20002B07D07B691B689B6818463EF086F848
S214000D303B690CE07B69012283F831207B699A8845
S214000D407B699B791046194600F014F90023184673
S214000D501837BD4680BD00BF80B584B000AF786050
S214000D600023FB730023BB607B681B681B6C184664
S214000D70002102223DF0B6FF7B6893F8313083F005
S214000D800103DBB2002B23D07B681B685B6C1A6800
S214000D907B689A4205D00123FB73786800F0B6F8AA
S214000DA0B860BB68002B13D1FB7B002B08D078689B
S214000DB000F01CF9B860BB68002B01D0BB6808E0E7
S214000DC07B689A887B689B791046194600F0D2F8B3
S214000DD0BB6818461037BD4680BD00BF90B58BB0C7
S214000DE002AF786039600023FB610023BB610023FB
S214000DF0FB604FF4FF737B617B681B681A6C07F11E
S214000E000C043B68009310467969012223463DF0A6
S214000E1047FFB861BB69002B27D0BB69072B20D1E1
S214000E207B681B685B6C1B683B617B681B68DB6CC4
S214000E301B693A69D26A104698477B681B68DB6C68
S214000E401B687A68D16A7A6808320846114698475D
S214000E50F861FB69002B01D0FB693AE01423FB61C3
S214000E6001E06423FB61FB6933E0FB6803F00203E7
S214000E70002B2DD1FB6803F48073002B02D00D23CA
S214000E80FB6125E0FB6803F00803002B03D040F26B
S214000E902D13FB611CE0FB6803F01003002B03D04E
S214000EA04FF49773FB6113E0FB6803F02003002BFD
S214000EB002D0CA23FB610BE0FB6803F04003002B63
S214000EC003D04FF49873FB6102E04FF49673FB6116
S214000ED0FB6918462437BD4690BD00BF80B582B07A
S214000EE000AF78607B6893F8313083F00103DBB2A3
S214000EF0002B07D07B689A887B689B79104619463A
S214000F0000F056F80837BD4680BD00BF80B485B0F7
S214000F1000AF78600023FB607B681B685A687B68BC
S214000F205B699A4201D90623FB60FB6818461437B2
S214000F30BD465DF8047B704780B584B000AF78602E
S214000F407B689B68FB60FB681B681B6CBB60FB6870
S214000F501B681B6CBB60BA687B681B79194601234B
S214000F608B401046194600223DF0BCFE1037BD46A9
S214000F7080BD00BF80B582B000AF03460A46FB8046
S214000F8013467B717B79002B06D1084B1B6AFA88C7
S214000F9010460021984705E0044B1B6AFA88104665
S214000FA0012198470837BD4680BD00BF9CF204006B
S214000FB080B582B000AF03460A46FB8013467B71BD
S214000FC07B79002B06D1084B1B6AFA881046012154
S214000FD0984705E0044B1B6AFA881046002198479C
S214000FE00837BD4680BD00BF9CF2040080B584B0C3
S214000FF000AF78600023FB607B681B685B6C1B6837
S214001000BB607B681B68DB6C1B69BA68D26A1046DB
S2140010109847F860FB68002B01D0FB6816E07B68F9
S2140010201B68DB6C1B687A68D16A7A6808320846E7
S21400103011469847F860FB68002B01D0FB6805E076
S2140010407B681B685B6C7A681A60FB68184610370A
S214001050BD4680BD80B586B000AFF860B9607A60E6
S21400106000237B61FB681B6893F85030002B5CD133
S21400107000233B61FB681B689A68FB681B689B6CD7
S21400108010461946012234233DF042FE38613B6982
S214001090002B07D0FB681B680C3318463DF08EFE0D
S2140010A0642343E0FB681B681A6CFB681B689B6C38
S2140010B01046194624223DF08FFD38613B69002B0F
S2140010C00DD0FB681B689B6818463DF077FEFB68F2
S2140010D01B680C3318463DF071FE642326E0BB689F
S2140010E01B68DB6C1B68FA68D26A104679689847FA
S2140010F078617B69002B13D0FB681B689B681846D9
S2140011003DF05CFEFB681B681B6C18463DF0B2FDAC
S214001110FB681B680C3318463DF050FE7B6905E003
S214001120FB681B685B6CFA681A607B6918461837A0
S214001130BD4680BD80B485B000AFEFF30383BB60CF
S214001140BB687B603B1DFB60FB681B88C3F3080322
S2140011509BB2DBB2103BDBB2DBB25BB21846143795
S214001160BD465DF8047B704780B584B000AFEFF3F2
S21400117005837B607B6818463EF0CCFAFFF7DAFF03
S2140011800346184618F0AAFA0023FB730023BB6038
S21400119015E0174B1B681A69BB68AC2101FB03F30B
S2140011A01344D3F89430134A934205D1B86802F03A
S2140011B0E7FE0123FB7308E0BB680133BB600C4B02
S2140011C01B685A69BB689A42E3D8FB7B83F001032D
S2140011D0DBB2002B01D001F07DFDEFF305833B6011
S2140011E03B6818463EF094FA1037BD4680BD00BFF7
S2140011F0886D02200000094080B586B000AFF86018
S214001200B9607A60F868302101F06AFF3861F868E2
S21400121030214FF4E06201F02DFFF8683A2101F02A
S2140012205FFF78617B68012B08D1BB689B681A4614
S214001230012393407A6913437B6108E0BB689B688F
S2140012401A4601239340DB437A6913407B617B692E
S2140012509BB2F8683A211A4601F070FF3B699BB2D0
S214001260F86830211A4601F069FF1837BD4680BD80
S21400127080B586B000AFF860B9607A60F868302153
S21400128001F02EFF3861F86830214FF4E06201F07B
S214001290F1FEF868382101F023FF78617B68012BA6
S2140012A008D1BB689B681A46012393407A691343AA
S2140012B07B6108E0BB689B681A4601239340DB43CA
S2140012C07A6913407B617B699BB2F86838211A46BD
S2140012D001F034FF3B699BB2F86830211A4601F0F2
S2140012E02DFF1837BD4680BD80B586B000AFF860CC
S2140012F0B9607A60F868302101F0F2FE3861F8686B
S21400130030214FF4E06201F0B5FEF868362101F0B6
S214001310E7FE78617B68012B08D1BB689B681A469C
S214001320012393407A6913437B6108E0BB689B689E
S2140013301A4601239340DB437A6913407B617B693D
S2140013409BB2F86836211A4601F0F8FE3B699BB25C
S214001350F86830211A4601F0F1FE1837BD4680BD08
S21400136080B584B000AF78603960FF23FB603B68CF
S214001370002B01D1FB684EE03B68DB68012B02D9ED
S214001380042B06D00BE07868396801F045F8F86061
S21400139005E07868396800F069FFF86000BFFB6810
S2140013A0023B032B28D801A252F823F0BD130000FD
S2140013B0DF130000DF130000131400003B689B6877
S2140013C0002B04D1786839680122FFF715FF78688A
S2140013D039680122FFF788FF0023FB601AE078686F
S2140013E039680022FFF780FF786839680122FFF726
S2140013F003FF0023FB600DE0786839680022FFF7E2
S21400140073FF786839680022FFF7F6FEFF23FB605B
S21400141000E000BFFB6818461037BD4680BD00BF21
S21400142080B586B000AFF860B9607A60BB68DB68EC
S214001430042B6FD801A252F823F000BF81140000DD
S214001440B11400005114000051140000E114000013
S214001450F868202101F044FE38613B6923F44063BC
S21400146023F00F033B61BB689B683A6913433B61FB
S2140014703B699BB2F86820211A4601F05FFE4AE0FD
S214001480F868282101F02CFE38613B6923F440639C
S21400149023F00F033B61BB689B683A6913433B61CB
S2140014A03B699BB2F86828211A4601F047FE32E0F5
S2140014B0F8682C2101F014FE38613B6923F4406380
S2140014C023F00F033B61BB689B683A6913433B619B
S2140014D03B699BB2F8682C211A4601F02FFE1AE0F1
S2140014E0F868202101F0FCFD38613B6923F4426373
S2140014F023F00F033B61BB689A687B6813433A6925
S21400150013433B613B699BB2F86820211A4601F001
S21400151015FE00E000BF00237B610CE0F8680021A8
S21400152001F0DEFD3861F868042101F0D9FD38616C
S2140015307B6901337B617B69032BEFDD1837BD4682
S21400154080BD00BF80B584B000AF786039603B686E
S2140015509B68002B12D178685C2101F0C1FDB86051
S214001560BB6803F48073002B03D04FF48073FB60DA
S2140015701AE03B689B6ADB69FB6015E078686421CB
S2140015800F2201F077FD3B689B689BB27868642168
S2140015901A4601F0D3FD78685C2101F0A1FDB86021
S2140015A03B689B6ADB69FB60FB6818461037BD46E4
S2140015B080BD00BF80B590B000AF78603960002372
S2140015C0FB623B685B6923F080037B627A6A1346A2
S2140015D0DB001344DB007A68134404333B623B6A47
S2140015E01B6803F00103002B40F057813B6A1B6821
S2140015F043F001023B6A1A603B683A6A9A603B6AAB
S2140016003A689A623B689B6903F00303FB61FB69D7
S214001610022B0FD0032B60D0002B40F0A7800023B6
S214001620FB633B6A00221A623B68DB699A093B6AE5
S2140016305A629DE001237B630023FB63FF23BB62AA
S21400164029E07B6B9BB2786864211A4601F076FD30
S2140016507A687B6BB4339B0013445B68BB61786825
S214001660682101F03DFD034603F440439B0BBA6935
S2140016701343BB61BB69002B0AD17B6BFB637A68A3
S2140016807B6BB4339B0013447A6A5A600023BB62B8
S2140016907B6B01337B637B6B052B02D8FB6B002BCC
S2140016A0CFD0BB6A002B01D0FF23F7E04FF4804376
S2140016B0FB623B6A08225A62FB6B013B3A6A526A3B
S2140016C002FB03F303F108023B6A1A623B6A1B6AD9
S2140016D0872B01D9FF23E1E04AE00423BB63002304
S2140016E0FB63FF23BB6206237B632DE07B6B9BB211
S2140016F0786864211A4601F021FD7A687B6BB43362
S2140017009B0013445B68BB617868682101F0E8FCC5
S214001710034603F440439B0BBA691343BB61BB69A2
S214001720002B0BD17B6BFB637A687B6BB4339B001F
S21400173013447A6A5A600023BB6208E0BB6B01332D
S214001740BB637B6B01337B637B6B092BCED9BB6A98
S214001750002B01D0FF23A1E04FF40043FB623B6A5D
S214001760BA6B1A623B6A00225A6201E0FF2395E0D8
S2140017703B6AFA6B9A60FB69002B03D13B6A042232
S214001780DA6038E03B685B6903F08003002B19D011
S2140017907B68D3F80833002B10D07B68D3F87C33F3
S2140017A0002B07D13B6A0022DA607B680122C3F86F
S2140017B07C2320E03B6A0222DA601CE03B6A0222BD
S2140017C0DA6018E07B68D3F80C33002B10D07B6807
S2140017D0D3F88033002B07D13B6A0122DA607B689E
S2140017E00122C3F8802306E03B6A0322DA6002E0A7
S2140017F03B6A0322DA60FB69002B08D13B68DB6991
S2140018009BB278685E211A4601F098FC3FE03B6880
S2140018105B6903F08003002B02D010233B6301E0DA
S21400182000233B637868396A00F0BCF8EFF3108356
S2140018303B6172B63B697B613B6A9B689BB278688A
S21400184064211A4601F07AFCFB6A9AB23B6B9BB2A3
S21400185013439AB23B685B699BB203F00F039BB2DB
S21400186013439BB243F080039BB2786868211A4604
S21400187001F064FC3B68DB699BB278686C211A4611
S21400188001F05CFC7B69FB60FB6883F3108878687A
S214001890396800F0BFF8002300E0142318464037EC
S2140018A0BD4680BD80B584B000AF786039603B68C7
S2140018B09B68FB60FB689B689BB2786864211A464D
S2140018C001F03CFCFB689B68002B4ED0FB689B68D5
S2140018D07A68B4339B00134400225A60FB689B6806
S2140018E037335B0078681946002201F00DFCFB6870
S2140018F09B681A46012393409BB278684A211A4691
S21400190001F0D4FBFB689B681A46012393409BB208
S214001910786846211A4601F0C9FBFB689B681A46A0
S214001920012393409BB2786848211A4601F0BEFB1B
S2140019307868F9680022FFF7D7FC7868F968002213
S214001940FFF75AFC7868F9680022FFF791FC786880
S21400195022214FF4804201F0F1FBFB689B689BB2AA
S214001960786868211A4601F0E9FBFB6800221A60D5
S214001970FB68DB68002B04D17B680022C3F87C235D
S2140019800BE0FB68DB68012B04D17B680022C3F800
S214001990802302E0FB6800221A60002318461037F6
S2140019A0BD4680BD80B584B000AF78603960202326
S2140019B0FB603B689B68002B11D17868602103228E
S2140019C001F058FB07E07868602101F089FB0346C8
S2140019D003F02003FB60FB68002BF4D116E03B68A5
S2140019E09B6837335B00BB607868B968032201F0F8
S2140019F041FB07E07868B96801F072FB034603F024
S214001A002003FB60FB68002BF4D100BF1037BD46F7
S214001A1080BD00BF80B584B000AF786039603B6899
S214001A20002B01D114237BE03B689B68FB60FB68BE
S214001A309B68002B16D178686021032201F01AFB00
S214001A40786860214FF4807201F05EFB7868202190
S214001A500F2201F073FB786822214FF4804201F0D8
S214001A6053FB56E0FB689B6837335B007868194683
S214001A70032201F0FFFAFB689B6837335B00786847
S214001A8019464FF4807201F03FFB7868282101F078
S214001A9027FBB860BB6803F00F02FB689B689A429E
S214001AA006D178682A214FF4804201F02DFB2FE002
S214001AB078682C2101F014FBB860BB6803F00F02B5
S214001AC0FB689B689A4206D178682E214FF48042C4
S214001AD001F01AFB1CE07868202101F001FBB860D9
S214001AE0BA684FF6F0731340BB60FB689B68BA6831
S214001AF01343BB60BB689BB2786820211A4601F08E
S214001B001DFB786822214FF4804201F0FDFAFFE7C2
S214001B1000BFFB681B6823F00402FB681A60002302
S214001B2018461037BD4680BD80B584B000AF7860DB
S214001B3039603B68002B01D114231DE03B689B688D
S214001B40FB60FB689B68002B05D178686021022249
S214001B5001F0DAFA09E0FB689B6837335B007868C7
S214001B601946022201F0D0FA00BFFB681B6843F05A
S214001B700402FB681A60002318461037BD4680BD75
S214001B8080B485B000AF786039603A681346DB00F1
S214001B901344DB007A6813440433FB60FB681B685D
S214001BA003F00103002B01D1FF2308E0FB681B684C
S214001BB003F00403002B01D1002300E001231846A4
S214001BC01437BD465DF8047B704700BF80B586B00D
S214001BD000AFF860B9607A60F868B9687A68FFF7AD
S214001BE01FFCBB68DB68042B1ED801A252F823F04A
S214001BF0051C0000111C00001D1C00001D1C000020
S214001C001D1C0000F8682A2101F06AFA78610DE0D0
S214001C10F8682E2101F064FA786107E0F86822215E
S214001C2001F05EFA786101E000237B617B6903F4D2
S214001C300053002B01D07B6900E0FF2318461837BD
S214001C40BD4680BD80B58EB000AF78603960202379
S214001C503B637B68D3F8FC321433FB622223BB62FF
S214001C60786839680022FFF7B1FF78627B6AFF2B3D
S214001C7001D1FF2340E03B689B6ADB693B627B6ADD
S214001C80C3F30B033B613A693B689A61786839682D
S214001C90FFF788FE3B681A693B699A4205D207231C
S214001CA07B633B681B693B6111E03B69002B09D0F5
S214001CB03B693A6AB3FBF2F2396A01FB02F29B1AFD
S214001CC0002B02D004237B6301E002237B633B6985
S214001CD0002B0AD03B68DB69FB6007F10C037868D1
S214001CE01946FA6A3B6B00F00DFA7868B96A4FF449
S214001CF0804201F023FA7B6B18463837BD4680BD1C
S214001D0080B58EB000AF786039603B68DB68032B27
S214001D1028D801A252F823F03D1D0000511D0000F6
S214001D20291D0000291D000020233B637B68D3F893
S214001D30FC321433FB622223BB621DE028233B6384
S214001D407B68D3F8FC321833FB622A23BB6213E0AD
S214001D502C233B637B68D3F8FC321C33FB622E23B8
S214001D60BB6209E020233B637B68D3F8FC32143364
S214001D70FB622223BB6200BF786839680022FFF747
S214001D8025FF78627B6AFF2B01D1FF2340E03B688A
S214001D909B6ADB693B627B6AC3F30B033B613A6970
S214001DA03B689A6178683968FFF7FCFD3B681A69FA
S214001DB03B699A4205D207237B633B681B693B61FC
S214001DC011E03B69002B09D03B693A6AB3FBF2F29B
S214001DD0396A01FB02F29B1A002B02D004237B63B4
S214001DE001E002237B633B69002B0AD03B68DB697A
S214001DF0FB6007F10C0378681946FA6A3B6B00F043
S214001E0081F97868B96A4FF4804201F097F97B6BE4
S214001E1018463837BD4680BD90B591B002AFF86021
S214001E20B9607A60F868B9682022FFF7F9FAF868AE
S214001E3022214FF4804201F081F9BB68DB68012B58
S214001E4017D0012B0BD3042B1DD120237B63FB68FB
S214001E50D3F8FC3214333B632223FB621DE02823B5
S214001E607B63FB68D3F8FC3218333B632A23FB62A0
S214001E7013E02C237B63FB68D3F8FC321C333B63F4
S214001E802E23FB6209E020237B63FB68D3F8FC3239
S214001E9014333B632223FB6200BFFB680022C3F8B7
S214001EA078237B687B617B69002B45D0BB68DB6948
S214001EB03B61BB689B6ADB69BB6207F11003F8688D
S214001EC019467A6BBB6A00F043F8F868B9680122D5
S214001ED0FFF70AFA3A69FC6A7B6B0093F8681146CA
S214001EE03A6B234600F0A6F83A69BB69F96901FB2C
S214001EF003F3396A01FB03F313443B617A69BB6958
S214001F00F96901FB03F3396A01FB03F3D31A7B611A
S214001F10FB6803F5577318464FF0FF3146F040F85C
S214001F207862F868796B4FF4805201F0A3F87B6A08
S214001F30002B01D0FF2306E0F868F96A4FF48042D0
S214001F4001F0FCF8002318463C37BD4690BD00BFA4
S214001F5080B584B000AFF860B9607A603B60F8681E
S214001F60B9687A683B6800F003F81037BD4680BD54
S214001F7080B584B000AFF860B9607A603B60BB683B
S214001F801B6803F00103002B2AD1BB680222DA602B
S214001F903B685A08BB689A60BB685A683B68B2FBE5
S214001FA0F3F2BB681A61FB68D3F82423D3780121C7
S214001FB061F30513D370FB68D3F82433BA689268CC
S214001FC092B2DA81FB68D3F82433BA68126992B207
S214001FD09A81F86879684FF4806201F095F826E0F7
S214001FE0BB680122DA60BB683A689A60BB685A68C8
S214001FF03B68B2FBF3F2BB681A61FB68D3F8242394
S214002000D3786FF30513D370FB68D3F82433BA681C
S214002010926892B2DA81FB68D3F82433BA68126900
S21400202092B29A81F8687968002201F06DF810374C
S214002030BD4680BDB0B588B002AFF860B9607A60C2
S2140020403B603B68F868194601F04AF80246FB68B0
S214002050C3F87823BB6AF868194601F041F80346CE
S2140020609BB27B827B8A9BB203F00F039BB27B8280
S2140020707B8A9BB21A46FB68C3F87823BB6AF8686B
S21400208019460F2200F0F6FFFB68D3F82433DB89ED
S214002090FB82FB68D3F824339B89BB82FB68D3F8AA
S2140020A00C339B685C6AFB68D3F80C331A68FB68D1
S2140020B0D3F82433DB78C3F30113DBB2FD8A009335
S2140020C0BB8A019310467968BA682B46A047BB6A5C
S2140020D0F86819464FF4805201F016F8BA6A7B8AFF
S2140020E09BB2F86811461A4601F00EF87B8A9BB23E
S2140020F037335B00F8681946012201F005F81837F7
S214002100BD46B0BD80B584B000AFF860B9607A60F7
S2140021103B60F868B9687A683B6800F003F81037E7
S214002120BD4680BD80B584B000AFF860B9607A6007
S2140021303B60BB681B6803F00103002B2FD1BB6814
S2140021405B685A08BB689A60BB680222DA60BB68A4
S2140021505A68BB689B685B00D21ABB685A60F8680E
S21400216039684FF4806200F0CFFF0FE0BB681B6851
S2140021707A68128892B21A80BB681B689A1CBB6881
S2140021801A60BB689B685A1EBB689A60BB689B68EF
S214002190002BEBD1B868796800F01EF819E0F868F3
S2140021A03968002200F0B0FF0FE0BB681B687A6851
S2140021B01278D2B21A70BB681B685A1CBB681A60C9
S2140021C0BB685B685A1EBB685A60BB685B68002BBE
S2140021D0EBD11037BD4680BD80B485B000AF7860C7
S2140021E039600023FB607B685B68002B39D07B6816
S2140021F0DB68042B1AD13B681B68BB600FE07B686A
S2140022001A68FB68591CF96007F110010B4413F8B3
S214002210083C13707B681B685A1C7B681A607B68D6
S2140022205B681A46FB689A42E9DC1AE03B681B8842
S2140022309BB2BB600FE07B681A68FB68591CF960AC
S21400224007F110010B4413F8083C13707B681B68F9
S2140022505A1C7B681A607B685B681A46FB689A4261
S214002260E9DC1437BD465DF8047B704780B58CB05A
S21400227000AF78603960786839682022FFF7A6FCDE
S214002280B862BB6AFF2B01D1FF2333E03B689B6A31
S214002290DB697B623B689B6ADB693B623B681A6969
S2140022A03B6A9A4205D83B681B69FB600323FB62C6
S2140022B003E00223FB627B6AFB603B68DB69BB6072
S2140022C0FA683B685A617B68D3F8FC321433FB61CA
S2140022D007F1080378681946FA69202300F00EF81B
S2140022E0FB6A022B05D0786822214FF4004200F0EA
S2140022F025FFFB6A18463037BD4680BD80B584B0E2
S21400230000AFF860B9607A603B60F868B9687A68D0
S2140023103B6800F003F81037BD4680BD80B584B03A
S21400232000AFF860B9607A603B60BB681B6803F07A
S2140023300103002B32D1BB685B685A08BB689A6001
S214002340BB680222DA60BB685A68BB689B685B00A1
S214002350D21ABB685A60F86839684FF4806200F099
S214002360D3FE0EE0BB681B681A887B681A80BB68C1
S2140023701B689A1CBB681A60BB689B685A1EBB68C1
S2140023809A60BB689B68002BECD1FB68D3F8FC32E4
S214002390B86879681A4600F01DF818E0F8683968D9
S2140023A0002200F0B1FE0EE0BB681B681A787B685E
S2140023B01A70BB681B685A1CBB681A60BB685B68EF
S2140023C05A1EBB685A60BB685B68002BECD110379E
S2140023D0BD4680BD80B485B000AFF860B9607A6055
S2140023E011E0FB681B681A78BB681A70FB681B68EC
S2140023F05A1CFB681A60BB68013BBB60FB685B68E5
S2140024005A1EFB685A60FB685B68002BE9D11437DC
S214002410BD465DF8047B704780B590B000AF78602D
S2140024203960786839680022FFF7D0FBF862FB6AEB
S214002430FF2B01D1FF2373E078683968FFF782F835
S214002440B8623B689B6ADB697B623B681A697B6A99
S2140024509A4205D83B681B693B610323FB6303E094
S2140024600223FB63BB6A3B613B68DB68032B29D80E
S21400247001A252F823F000BF9D240000B124000002
S214002480892400008924000020233B637B68D3F85E
S214002490FC321433BB6322237B631DE028233B639B
S2140024A07B68D3F8FC321833BB632A237B6313E0C4
S2140024B02C233B637B68D3F8FC321C33BB632E2390
S2140024C07B6309E020233B637B68D3F8FC3214333C
S2140024D0BB6322237B6300BF3B68DB69FB603A6912
S2140024E03B685A6107F10C0378681946BA6B3B6B78
S2140024F0FFF704FF3B681A697B6A9A420FD2786836
S214002500796B00F0EDFD38623B6A03F40043002B64
S21400251005D17868796B4FF4004200F0F5FDFB6B4F
S21400252018464037BD4680BD90B595B002AFF860FE
S214002530B9607A60BB68002B01D1FF238EE0F86893
S2140025402A214FF4804200F0F9FDF868B9680022AD
S214002550FFF73CFBB863BB6BFF2B01D1FF237DE08D
S2140025607B68FB61BB68DB68002B09D1FB68D3F88E
S214002570FC3218337B642A233B642823FB6308E081
S214002580FB68D3F8FC321C337B642E233B642C237D
S214002590FB63BB68DB69BB61BB689B6ADB697B630B
S2140025A007F11803F8681946FA6B7B6B00F05AF8C7
S2140025B0BA693C6CFB6B0093F86811467A6C23464C
S2140025C000F0C2F8FB6803F5507318464FF0FF3171
S2140025D045F0E6FC3863F86828214FF4805200F096
S2140025E049FD3B6B002B01D0062337E0BA693B6AF6
S2140025F0796A01FB03F3B96A01FB03F31344BB6179
S214002600FA693B6A796A01FB03F3B96A01FB03F3D3
S214002610D31AFB61F868F96B00F062FD0346FB8590
S214002620FB8D03F00F03FB8500233B61FB8D3733E7
S2140026305B00F868194600F053FD03467B613B6972
S21400264001333B613B69B3F5FA6F01D9062305E018
S2140026507B6903F48043002BE8D1032318464C37EC
S214002660BD4690BD80B584B000AFF860B9607A60B2
S2140026703B60F868B9687A683B6800F003F8103782
S214002680BD4680BD80B584B000AFF860B9607A60A2
S2140026903B60BB681B6803F00103002B2AD1BB68B4
S2140026A00222DA603B685A08BB689A60BB685A68C0
S2140026B03B68B2FBF3F2BB681A61FB68D3F81023E1
S2140026C0D378012161F30513D370FB68D3F8103378
S2140026D0BA68926892B2DA81FB68D3F81033BA68A7
S2140026E0126992B29A81F86879684FF4806200F0B5
S2140026F00BFD26E0BB680122DA60BB683A689A6088
S214002700BB685A683B68B2FBF3F2BB681A61FB68A9
S214002710D3F81023D3786FF30513D370FB68D3F880
S2140027201033BA68926892B2DA81FB68D3F8103335
S214002730BA68126992B29A81F8687968002200F045
S214002740E3FC1037BD4680BDB0B588B002AFF86078
S214002750B9607A603B603B68F868194600F0C0FCD8
S2140027600246FB68C3F87823BB6AF868194600F08F
S214002770B7FC03469BB27B827B8A9BB203F00F03B7
S2140027809BB27B82BB6AF86819460F2200F072FC87
S214002790FB68D3F81033DB89FB82FB68D3F8103371
S2140027A09B89BB82FB68D3F808339B685C6AFB682E
S2140027B0D3F808331A68FB68D3F81033DB78C3F312
S2140027C00113DBB2FD8A0093BB8A01931046B968F9
S2140027D07A682B46A047BB6AF86819464FF48052C1
S2140027E000F092FCBA6A7B8A9BB2F86811461A46D9
S2140027F000F08AFC7B8A9BB237335B00F868194688
S214002800012200F081FC1837BD46B0BD80B584B00B
S21400281000AF7860396078684C2100F061FCF860A1
S214002820FB68C3F30A03FB603B68FA681A60002380
S21400283018461037BD4680BD80B586B000AFF8603C
S214002840B9607A60FB681B6A002B01D155235CE0F7
S214002850FB68DB6B3B61BB680A3B0B2B51D801A2C4
S21400286052F823F09528000003290000A128000054
S214002870AD280000B9280000C5280000D1280000B7
S214002880E928000003290000EF280000DD280000EA
S214002890F528000038697968FFF7B8FF786133E0FB
S2140028A03869796800F0ECFF78612DE0386979685E
S2140028B000F05AFC786127E038697968FEF77AFEFE
S2140028C0786121E038697968FEF7ECFF78611BE0F3
S2140028D038697968FFF79EF8786115E03869796895
S2140028E0FFF722F978610FE000237B610CE00023FC
S2140028F07B6109E07B6838691946FFF741F9786122
S21400290002E054237B6100BF7B6918461837BD463A
S21400291080BD00BF80B483B000AF0346FB7197F95B
S2140029200730002B0BDB084997F907305B09FA796B
S21400293002F01F02012000FA02F241F823200C37B1
S214002940BD465DF8047B704700E100E080B483B0CC
S21400295000AF03463960FB7197F90730002B0ADB9E
S2140029600D4997F907303A68D2B21201D2B20B4439
S21400297083F800230AE00949FB7903F00F03043BC0
S2140029803A68D2B21201D2B20B441A760C37BD4660
S2140029905DF8047B704700BF00E100E000ED00E05A
S2140029A080B584B000AF7860786800F00BF8F86007
S2140029B0FB68002B01D100F0EFF8FB6818461037D3
S2140029C0BD4680BD90B58FB000AF78600023FB6138
S2140029D00023BB6133233B770023FB83FF2387F869
S2140029E02F30684B07F108040FCB84E80F007B6894
S2140029F0654A93421BD100237B77022387F82E304B
S214002A00032387F82F3007F11C03184616F0F4FC52
S214002A105E4B1B6907F11C0097F82E1007F1180291
S214002A2098473B7E5BB213F1210F14D006E00220DC
S214002A300221322245F0C2F832239EE03A7E97F811
S214002A402F3052B210461946FFF780FF3B7E5BB22E
S214002A501846FFF75FFF4E4B1B68D833BB62BB6A56
S214002A6080225A62002000214FF4647245F046F935
S214002A7078627B6A002B01D112237EE0BB6A7A6AF9
S214002A80DA63BB6A7A681A637B6A7A68C3F8FC22E0
S214002A907B6ABA6A1A60BB6A3E4A9A6301237B6302
S214002AA035E07B6BDBB23033DBB2DBB2BB757A6B07
S214002AB01346DB001344DB0028337A6A134403F121
S214002AC0080207F1080310461946002245F058FA96
S214002AD038623B6A002B17D001233B630EE03A6B4B
S214002AE01346DB001344DB0028337A6A13440833AA
S214002AF0184645F053FA3B6B01333B633A6B7B6BEE
S214002B009A42ECD33B6A38E07B6B01337B637B6B8A
S214002B10092BC6D97B681C4A93420FD1786A0021DC
S214002B204FF4806200F0F0FA00BF786A002100F0EF
S214002B30D7FA034603F48063002BF6D0786A0021A8
S214002B40012200F097FA786A0021402200F092FAFB
S214002B50786A0021102200F0D7FA7B680A4A93426E
S214002B6005D1786A0021082200F084FA04E0786A29
S214002B700021202200F07EFA002318463C37BD468E
S214002B8090BD00BFBCEF040000000940BCF3040089
S214002B90846D02203928000080B582B000AF0C4B4F
S214002BA01B68D8337B607B68DB6B3B603868002132
S214002BB0012200F0A9FA386830214FF41F4200F0D5
S214002BC0A3FA7B6801221A620837BD4680BD00BFA3
S214002BD0846D022080B584B000AF3C4B1B68D833B0
S214002BE0FB603A4B1B6803F50773BB60374B1B68EB
S214002BF0D3F89C33012B10D1344B1B68334A126830
S214002C00D2F82823C3F82023304B1B682F4A1268BB
S214002C10D2F82C23C3F824230FE02C4B1B682B4A36
S214002C201268D2F83023C3F82023284B1B68274AA3
S214002C301268D2F83423C3F82423244B1B68D3F835
S214002C4020337B60BB680433786821490E2245F048
S214002C502BF8BB686C333B603B684FF47A729A641F
S214002C603B68DA683B681A61BB6803F13C023B6864
S214002C709A603B689B68BA68D269DA61BB68DA69B1
S214002C803B685A61BB6803F13C023B689A60FB688C
S214002C909B6BBA683C32F8680E219847BB680022E6
S214002CA01A643B6802225A62084B1B68D3F8C0338A
S214002CB0002B05D0054B1B68D3F8C033012098477E
S214002CC0002318461037BD4680BD00BF846D022025
S214002CD0E805002080B596B000AF944B1B68D8334B
S214002CE07B647B6CDB6B3B64904B1B6803F5077364
S214002CF0FB63386C402100F0F3F9B863BB6B03F458
S214002D008043002B11D0894B1B68D3F8C033002BAF
S214002D1005D0864B1B68D3F8C03305209847386C1F
S214002D2040214BF6FF7200F009FABB6B03F4004338
S214002D30002B37D0386C402147F6FF7200F0FEF9C2
S214002D40386C402100F0CCF9034603F080037B6327
S214002D50386C402100F0C4F9034603F080033B635F
S214002D60386C402100F0BCF9034603F08003FB6298
S214002D707A6B3B6B9A42E3D17A6BFB6A9A42DFD15D
S214002D807B6B03F08003002B05D0386C00211022EB
S214002D9000F0BAF906E0386C0021102200F06AF95B
S214002DA044F0F4FCBB6B03F48053002B5ED0386C0D
S214002DB040214EF6FF7200F0C1F9BB6B03F07003C2
S214002DC0102B09D0102B02D8002B4ED039E0202B28
S214002DD02AD0302B30D034E0386C082100F080F94F
S214002DE0034603F00703BB62BB6A022B0AD0032B21
S214002DF00ED0012B00D011E04C4B1B680022C3F80C
S214002E009C230BE0494B1B680122C3F89C2305E07A
S214002E10464B1B680222C3F89C2300BFFFF7DAFE6E
S214002E20FB6B01221A6021E0386C502100F058F943
S214002E3002467B6C5A6319E03B6C0322C3F80423FA
S214002E4014E03A4B1B68D3F8C033002B05D0374B41
S214002E501B68D3F8C03304209847FB6B1B68002B15
S214002E6002D044F093FC01E000E000BFBB6B03F42B
S214002E708063002B45D0386C4A2100F031F9786227
S214002E80386C3A2100F02CF9386201237B65002368
S214002E90BB6433E07A6A7B6D1340002B28D03A6A15
S214002EA07B6D1340002B23D07B6D9BB2DB439BB224
S214002EB0386C4A211A4600F041F93A6CBB6CB433C0
S214002EC09B0013445A681346DB001344DB003A6C3D
S214002ED013440433FB61FB699B6ABB61BB693033F7
S214002EE07B61386C79694FF48062002300F0A2F9A8
S214002EF07B6D5B007B65BB6C0133BB64BB6C092BD5
S214002F00C8D9BB6B03F48073002B48D0386C4621BD
S214002F1000F0E6F83861386C362100F0E1F8F86029
S214002F200123FB640023BB6436E000BF846D0220EF
S214002F303A69FB6C1340002B28D0FA68FB6C1340F0
S214002F40002B23D0FB6C9BB2DB439BB2386C462134
S214002F501A4600F0F3F83A6CBB6CB4339B0013448B
S214002F605A681346DB001344DB003A6C1344043300
S214002F70FB61FB699B6ABB61BB6930337B61386C64
S214002F8079694FF48072002300F054F9FB6C5B0003
S214002F90FB64BB6C0133BB64BB6C092BC8D9BB6B31
S214002FA003F40073002B45D0386C482100F098F8E5
S214002FB0B860386C382100F093F8786001233B65E0
S214002FC00023BB6433E0BA683B6D1340002B28D067
S214002FD07A683B6D1340002B23D03B6D9BB2DB43DE
S214002FE09BB2386C48211A4600F0A8F83A6CBB6CC5
S214002FF0B4339B0013445A681346DB001344DB00CB
S2140030003A6C13440433FB61FB699B6ABB61BB6982
S21400301030337B61386C79694FF40072002300F01E
S21400302009F93B6D5B003B65BB6C0133BB64BB6C55
S214003030092BC8D9BB6B03F40063002B17D03B6C7D
S2140030400433FB61FB699B6ABB61BB6930337B6100
S214003050BB6B03F00703386C79694FF4006200F02D
S214003060E9F8386C40214FF2FF7200F067F85837E5
S214003070BD4680BD80B487B000AFF860B960134627
S214003080FB80FB68D3F8FC22BB6813447B617B693A
S2140030901A88FB88DB439BB213409AB27B691A807E
S2140030A01C37BD465DF8047B704700BF80B487B010
S2140030B000AFF860B9601346FB80FB68D3F8FC22CB
S2140030C0BB6813447B61FB88DB439BB2C3F30903F5
S2140030D09AB27B691A801C37BD465DF8047B704740
S2140030E080B485B000AF786039607B68D3F8FC2286
S2140030F03B681344FB60FB681B8818461437BD46C4
S2140031005DF8047B704700BF80B487B000AFF860FE
S214003110B9601346FB80FB68D3F8FC22BB681344F7
S2140031207B617B691A88FB8813439AB27B691A8095
S2140031301C37BD465DF8047B704700BF80B487B07F
S21400314000AFF860B9601346FB80FB68D3F8FC223A
S214003150BB6813447B617B69FA881A801C37BD46BE
S2140031605DF8047B704700BF80B584B000AF786020
S21400317039603B689B68FB60FB689B68BB60BB680C
S2140031809B689BB2786864211A46FFF7D7FFBB6836
S2140031909B68002B49D07868B968FEF703FC78680E
S2140031A022214FF48042FFF7C9FF78682A214FF4A6
S2140031B08042FFF7C3FF7868B9680022FEF730F94F
S2140031C0BB689B681A46012393409BB278684A21E5
S2140031D01A46FFF76BFFBB689B681A4601239340AD
S2140031E09BB2786846211A46FFF760FFBB689B686B
S2140031F01A46012393409BB2786848211A46FFF787
S21400320055FF7868B9680022FEF76EF87868B968E6
S2140032100022FDF7F1FF7868B9680022FEF728F86B
S214003220BB682C33184644F0DFFE002318461037E0
S214003230BD4680BD90B58BB000AFF860B9607A60CF
S2140032403B60BB689B68FB61FB699B68BB61BB68B6
S214003250DB687B617B68B3F5006F40F0F5803B6808
S214003260062B00F2EF8001A252F823F09332000002
S21400327097320000453400009732000045340000C5
S2140032809732000089320000BB6900225A60FF2393
S214003290F1E20023EFE2F86840214FF6F772FFF7FD
S2140032A04DFFBB6850337B61F8685421FFF718FF69
S2140032B003469BB27869194644F09AFE7B699C1CCB
S2140032C0F8685621FFF70CFF03469BB220461946C6
S2140032D044F08EFE7B691C1DF8685821FFF700FF3E
S2140032E003469BB22046194644F082FE7B699C1D2D
S2140032F0F8685A21FFF7F4FE03469BB220461946AB
S21400330044F076FEBB6800229A61BB6801225A60D0
S214003310BB6800221A62BB6893F85030DBB25BB21F
S214003320002B03DAB86844F033F858E0BB6893F82B
S2140033305630002B08D1BB6893F85730002B03D1CA
S214003340B86844F025F84AE0BB6802225A62BB68B7
S2140033505633184644F04AFE0246BB685A61BB68BC
S21400336000229A61BB68DA68BB681A61F868602157
S2140033700322FFF77FFEBB699B681A460123934032
S2140033809BB2F8684A211A46FFF790FEBB699B6815
S2140033901A46012393409BB2F86846211A46FFF767
S2140033A085FEF86822214FF48042FFF7C7FEF868D2
S2140033B02A214FF48042FFF7C1FEF868B96900225F
S2140033C0FEF72EF8F868B9690122FDF78DFFF86858
S2140033D060210122FFF798FEBB6902225A60BB6893
S2140033E093F85030DBB25BB2002B1BDBBB6893F864
S2140033F05630002B16D1BB6893F85730002B11D1EE
S214003400BB680022DA61BB6800225A61BB680322EF
S2140034105A62BB6903225A60F86860210522FFF7EA
S21400342073FE0EE0BB6893F85030DBB25BB2002B45
S21400343003DBBB6902225A6003E0BB6901225A60C3
S21400344001E000E000BF15E27B68B3F5807F04D0A2
S2140034507B68B3F5806F40F00D82BB685B6A022B19
S21400346040F0FD80FB6893F88833FF2B35D1FB686E
S214003470D3F88C23BB699B689A422ED1FB68D3F89D
S21400348084335A1EFB68C3F88423FB68D3F884335E
S214003490002B21D1FB68D3F8783337335B00F8680C
S2140034A019460322FFF7E6FDF8682C214FF48052F8
S2140034B0FFF7E0FDF868B9690022FDF715FFFB6825
S2140034C00022C3F88423FB68002283F88823FB6865
S2140034D00022C3F88C23C1E0C0E0BB685B697B6256
S2140034E0BB697A6A1A61FB69DA697B6A9A4203D217
S2140034F0FB69DA69BB691A61BB681A69BB69DA617C
S214003500BB699B68002B15D1F868B969FEF79AFB72
S21400351038623B6A022B05D1F868B9690122FDF7CB
S214003520E3FE04E0F868B9690022FDF7DDFE00233B
S2140035303B6214E0F868B969FEF7E2FB38623B6A62
S214003540022B05D1F868B9690122FDF7CDFE04E02B
S214003550F868B9690022FDF7C7FE00233B623B6AA4
S214003560002B0DD0BB699B68002B00F08381BB68E5
S21400357023221A60BB692C33184644F035FD79E1E6
S214003580BB699B697B62BB681A697B6A1A44BB6825
S2140035901A61BB68DA697B6AD21ABB68DA61BB68F3
S2140035A09A697B6A1A44BB689A61BB689A69BB6869
S2140035B05B699A4204D0FB69DA697B6A9A4239D021
S2140035C0BB6800221A62F868B9690022FDF78CFE13
S2140035D0BB699B68002B08D0BB6802221A60BB69D7
S2140035E02C33184644F000FD23E0BB695B68022BD1
S2140035F01FD1B86843F0CCFEBB6903225A60BB6893
S2140036009B6A002B03D0BB689B6AB8689847BB6868
S2140036100022DA61BB6800225A61BB6803225A6244
S214003620BB6903225A60F86860210522FFF76CFD2B
S21400363014E013E0BB699B68002B05D1F868602195
S2140036400122FFF761FD15E1BB699B6837335B001C
S214003650F86819460122FFF757FD0BE10AE1BB683F
S214003660DB69002B40F08D80BB68DB6C012B55D1ED
S214003670BB6900221A61BB699B68002B1AD1F868E7
S214003680B969FEF7F3FD38623B6A022B05D1F8688C
S214003690B9690122FDF728FE04E0F868B96900223E
S2140036A0FDF722FEF868B9690122FDF7A5FD0023A3
S2140036B03B6219E0F868B969FEF7AEFE38623B6A0D
S2140036C0022B05D1F868B9690122FDF70DFE09E065
S2140036D0F868B9690022FDF707FEF868B9690122A3
S2140036E0FDF78AFD00233B623B6AFF2B12D0BB69C5
S2140036F09B68002B05D1F86860210122FFF704FDC6
S21400370008E0BB699B6837335B00F86819460122FE
S214003710FFF7FAFCBB680022DA64ABE0BB68002265
S2140037201A62F868B9690022FDF766FDBB699B68F6
S214003730002B08D0BB6802221A60BB692C331846DF
S21400374044F052FC96E0BB695B68012B10D1BB6865
S2140037500022DA61BB6800225A61BB6803225A6203
S214003760BB6903225A60F86860210522FFF7CCFC8B
S214003770BB689B6A002B7DD0BB689B6AB86898477D
S21400378078E0BB68DB697B62FB69DA697B6A9A4230
S21400379002D2FB69DB697B62BB697A6A5A61BB68E5
S2140037A01A69BB69DA61BB699B68002B1AD1F86895
S2140037B0B969FEF75BFD38623B6A022B05D1F868F3
S2140037C0B9690122FDF790FD04E0F868B9690022A6
S2140037D0FDF78AFDF868B9690122FDF70DFD0023A3
S2140037E03B6219E0F868B969FEF716FE38623B6A74
S2140037F0022B05D1F868B9690122FDF775FD09E0CD
S214003800F868B9690022FDF76FFDF868B96901220A
S214003810FDF7F2FC00233B62BB691A697B6AD21A89
S214003820BB691A61BB681A697B6A1A44BB681A616D
S214003830BB68DA697B6AD21ABB68DA61BB689A69C8
S2140038407B6A1A44BB689A613B6AFF2B12D0BB693D
S2140038509B68002B05D1F86860210122FFF754FC15
S21400386008E0BB699B6837335B00F868194601229D
S214003870FFF74AFC002318462C37BD4690BD00BF14
S21400388080B58CB000AF7860396000233B620023BF
S214003890FB610023BB617B680022C3F884237B683E
S2140038A0002283F888237B680022C3F88C233B68B9
S2140038B09B687B617B699B683B613B699B68002BCF
S2140038C005D1786860210322FFF7D4FB20E03B692E
S2140038D09B6837335B0078681946FFF701FC78620F
S2140038E008E03B699B6837335B0078681946FFF74A
S2140038F0F7FB78627B6A03F48043002BF1D13B69C7
S2140039009B6837335B00786819460322FFF7B2FBE3
S2140039103B699B681A46012393409BB278684A210C
S2140039201A46FFF7C3FB3B699B681A460123934080
S2140039309BB2786846211A46FFF7B8FB3B685B6A7D
S214003940032B40F0C9817B68D3F80833002B1BD0CB
S2140039503B69DB68042B17D03B69DB68022B13D06E
S2140039603B69DB68032B0FD03B69DB68002B04D078
S2140039703B69DB68012B40F0AA803B685A697B698B
S214003980DB699A4200F2A3803B685B69FB623B6995
S214003990FA6A1A617B69DA69FB6A9A4202D27B6923
S2140039A0DB69FB623B68DB68FB603B69FA68DA61EF
S2140039B0786839692022FDF733FD786822214FF4B4
S2140039C08042FFF7BBFB3B699B68002B1AD17868E7
S2140039D03969FEF74BFCB862BB6A022B05D17868E2
S2140039E039690122FDF780FC04E078683969002215
S2140039F0FDF77AFC786839690122FDF7FDFB0023A4
S214003A00BB6219E078683969FEF706FDB862BB6AE2
S214003A10022B05D1786839690122FDF765FC09E0BB
S214003A20786839690022FDF75FFC786839690122F9
S214003A30FDF7E2FB0023BB62BB6AFF2B2BD03B6982
S214003A401A69FB6AD21A3B691A613B681A69FB6AF3
S214003A501A443B681A613B689A69FB6A1A443B68D9
S214003A609A613B68DA69FB6AD21A3B68DA613B699D
S214003A709B68002B05D1786860210122FFF744FB84
S214003A800BE03B699B6837335B0078681946012278
S214003A90FFF73AFB01E0FF236DE23B699B68002BD2
S214003AA013D03B692C3318464FF0FF3144F078FAB8
S214003AB0B862BB6A002B01D0BB6A5CE23B681B6A3B
S214003AC0002B02D03B681B6A55E200BF52E23B68FF
S214003AD05A697B69DB699B02B2FBF3F27B68C3F829
S214003AE03C237B68D3F83C335A1C7B68C3F83C23E2
S214003AF000233B6250E03B68DA697B69DB699B0226
S214003B009A4210D23B68DB69FB617B69DA69FB6924
S214003B10B3FBF2F102FB01F29B1ABB61FA69BB69C7
S214003B20D31AFB6103E07B69DB699B02FB61FB69DF
S214003B30002B2ED0786839692022FDF771FC786852
S214003B4022214FF48042FFF7F9FA3B681B69FB60BD
S214003B503B69FA68DA6178683969FA69FEF7E4FC65
S214003B60B8623B691A69FB69D21A3B691A613B68FD
S214003B701A69FB691A443B681A613B68DA69FB6993
S214003B80D21A3B68DA613B689A69FB691A443B685B
S214003B909A613B6A01333B627B68D3F83C233B6AFD
S214003BA09A42A8D83B699B681A46012393409BB269
S214003BB078684A211A46FFF779FA3B699B681A46E5
S214003BC0012393409BB2786846211A46FFF76EFAA7
S214003BD0BB69002B78D03B68DB69FB623B69FA6AFD
S214003BE01A617B69DA69FB6A9A4202D27B69DB69F1
S214003BF0FB623B681B69FB603B69FA68DA617868C0
S214003C0039692022FDF70CFC786822214FF48042A7
S214003C10FFF794FA78682A214FF48042FFF78EFA6D
S214003C203B681B69FB603B69FA68DA61786839694A
S214003C30FDF796FBB862BB6AFF2B2BD03B691A696F
S214003C40FB6AD21A3B691A613B681A69FB6A1A4416
S214003C503B681A613B689A69FB6A1A443B689A613A
S214003C603B68DA69FB6AD21A3B68DA613B699B6893
S214003C70002B05D1786860210122FFF745FA0BE09A
S214003C803B699B6837335B00786819460122FFF76B
S214003C903BFA01E0FF236EE13B699B68002B19D0DD
S214003CA03B692C3318464FF0FF3144F079F9B8627F
S214003CB0BB6A002B01D0BB6A5DE13B681B6A002B28
S214003CC008D03B681B6A56E13B6800221A623B68D4
S214003CD002221A6000234EE1786839690022FDF757
S214003CE003FB786839690022FDF786FA7B68D3F80B
S214003CF00C33002B19D03B69DB68042B15D03B69CD
S214003D00DB68022B11D03B69DB68032B0DD03B69C7
S214003D10DB68002B03D03B69DB68012B48D13B688E
S214003D205A697B69DB699A4242D878683969002209
S214003D30FDF776FB786822214FF48042FFF7FEF904
S214003D40786839690122FDF7CFFA3B699B68002B3A
S214003D5005D1786860210122FFF7D6F908E03B69B3
S214003D609B6837335B00786819460122FFF7CCF969
S214003D703B699B68002B1AD03B692C3318464FF0E2
S214003D80FF3144F00DF9B862BB6A002B01D0BB6A64
S214003D90F1E03B681B6A002B02D03B681B6AEAE036
S214003DA03B681B68232B02D13B681B68E3E0E1E01D
S214003DB03B685A697B69DB699B02B2FBF3F27B685E
S214003DC0C3F83C237B68D3F83C335A1C7B68C3F8A3
S214003DD03C2300233B6276E03B68DA697B69DB695B
S214003DE09B029A4210D23B68DB69FB617B69DA6909
S214003DF0FB69B3FBF2F102FB01F29B1ABB61FA69A5
S214003E00BB69D31AFB6103E07B69DB699B02FB613C
S214003E107B69DB69FA69B2FBF3F27B68C3F884233B
S214003E207B68FF2283F888233B699A687B68C3F81F
S214003E308C23FB69002B43D078683969FA69FDF753
S214003E40EBFFB8623B699B6837335B0078681946BE
S214003E50FFF746F9786208E03B699B6837335B00FA
S214003E6078681946FFF73CF978627B6A03F480436A
S214003E70002BF1D13B699B6837335B0078681946A5
S214003E800322FFF7F7F8BB6A002B01D0BB6A72E08B
S214003E903B691A69FB69D21A3B691A613B681A6961
S214003EA0FB691A443B681A613B68DA69FB69D21AF7
S214003EB03B68DA613B689A69FB691A443B689A6119
S214003EC03B6A01333B627B68D3F83C233B6A9A42E9
S214003ED082D8BB69002B47D0786839690022FDF785
S214003EE09FFA786822214FF48042FFF727F9786816
S214003EF02A214FF48042FFF721F9786839690122B8
S214003F00FDF7F2F93B699B68002B05D178686021C4
S214003F100122FFF7F9F808E03B699B6837335B003E
S214003F20786819460122FFF7EFF83B699B68002B7B
S214003F3020D03B692C3318464FF0FF3144F030F860
S214003F40B862BB6A002B01D0BB6A14E03B681B6AF0
S214003F50002B02D03B681B6A0DE03B681B68232BD6
S214003F6008D13B681B6806E03B6800221A623B6883
S214003F7002221A60002318463037BD4680BD00BFB7
S214003F8080B58EB000AF78608C4B1B681A697B6872
S214003F90AC2101FB03F313445B6B002B40F0A782BC
S214003FA0864B1B681A697B68AC2101FB03F313443C
S214003FB07B627B6AD3F8A8303B623B6AD3F8C83092
S214003FC05A1C3B6AC3F8C8207B6A1B6B012B40F067
S214003FD08E82386A302100F0A9FAF861386A3221F8
S214003FE000F0A4FAB861386A402100F09FFA024651
S214003FF0FB691A403B6AC3F8CC20386A422100F0BD
S21400400095FA0246BB691A403B6AC3F8D0203B6A61
S214004010D3F8CC3003F40053002B13D0386A402179
S2140040204DF6FF7200F0ACFA7B6AD3F88C305A1C5F
S2140040307B6AC3F88C20614B1B6803F52173184616
S21400404043F0D2FF3B6AD3F8D03003F40043002B92
S2140040500AD0386A422147F6FF7200F091FA012032
S2140040600121432243F0AAFD3B6AD3F8CC3003F487
S2140040708063002B44D0386A4A2100F057FA7861F2
S21400408001237B630023BB6229E07A697B6B1340C4
S214004090002B1ED03A6ABB6A40339B0013445B6811
S2140040A0002B0DD03A6ABB6A36339B0013445B681C
S2140040B043F00402396ABB6A36339B000B445A60ED
S2140040C07B6B9BB2DB439BB2386A4A211A4600F0F0
S2140040D057FA7B6B5B007B63BB6A0133BB62BB6AD0
S2140040E0092BD2D97B6AD3F88C305A1C7B6AC3F86A
S2140040F08C20324B1B6803F52173184643F074FF7F
S2140041003B6AD3F8CC3003F48073002B44D0386A73
S214004110462100F00BFA38610123FB620023BB62E4
S21400412029E03A69FB6A1340002B1ED03A6ABB6A44
S21400413040339B0013445B68002B0DD03A6ABB6A81
S21400414036339B0013445B6843F00102396ABB6A4E
S21400415036339B000B445A60FB6A9BB2DB439BB230
S214004160386A46211A4600F00BFAFB6A5B00FB62CF
S214004170BB6A0133BB62BB6A092BD2D97B6AD3F810
S2140041808C305A1C7B6AC3F88C200C4B1B6803F5DA
S2140041902173184643F028FF3B6AD3F8CC3003F46B
S2140041A00073002B47D0386A482100F0BFF9F8604A
S2140041B001233B630023BB622CE000BF886D022016
S2140041C0FA683B6B1340002B1ED03A6ABB6A40333A
S2140041D09B0013445B68002B0DD03A6ABB6A3633EB
S2140041E09B0013445B6843F00202396ABB6A3633AD
S2140041F09B000B445A603B6B9BB2DB439BB2386A16
S21400420048211A4600F0BCF93B6B5B003B63BB6A77
S2140042100133BB62BB6A092BD2D97B6AD3F88C30D8
S2140042205A1C7B6AC3F88C20B24B1B6803F52173BB
S214004230184643F0D9FE3B6AD3F8D03003F4006347
S214004240002B4ED0386A42214FF2FF7200F098F9E8
S214004250386A42214EF6FF7200F092F9386A04215D
S21400426000F064F9034603F00203002B06D0386A18
S2140042703C214FF4807200F06BF905E0386A3C216F
S2140042804FF4807200F038F93B6AD3F8D430002B34
S21400429027D13B6A1B69012B23D0386A32214FF4A1
S2140042A0006200F029F9386A32214FF4805200F09B
S2140042B04FF97B6A5B6C5A1C7B6A5A643B6A012224
S2140042C0C3F8D420386A5E21002200F041F93B6A28
S2140042D04FF0FF329A61874B1B68EC33184643F069
S2140042E083FE3B6AD3F8D03003F48053002B5FD0B4
S2140042F0386A42214EF6FF7200F042F9386A4221CF
S2140043004FF2FF7200F03CF93B6AD3F8D430012B31
S2140043104ED13B6A1B69012B4AD1386A32214FF4D1
S214004320805200F0E9F8386A32214FF4006200F05B
S2140043300FF90023BB6218E03A6ABB6A40339B0061
S21400434013445B68002B0DD03A6ABB6A36339B0079
S21400435013445B6843F08002396ABB6A36339B00BD
S2140043600B445A60BB6A0133BB62BB6A092BE3D9B4
S2140043707B6AD3F88C305A1C7B6AC3F88C205D4B62
S2140043801B6803F52173184643F02EFE7B6A5B6CB0
S2140043905A1C7B6A5A643B6A0022C3F8D4203B6AE4
S2140043A000221A61534B1B68EC33184643F01CFE80
S2140043B03B6AD3F8D03003F48043002B32D0386AFF
S2140043C042214BF6FF7200F0DBF83B6AD3F8D4309C
S2140043D0002B27D13B6A1B69012B23D0386A322178
S2140043E04FF4804200F088F8386A32214FF4805249
S2140043F000F0AEF87B6A5B6C5A1C7B6A5A643B6AB8
S2140044000122C3F8D420386A5E21002200F0A0F80A
S2140044103B6A4FF0FF329A61364B1B68EC33184606
S21400442043F0E2FD3B6AD3F8D03003F04003002BA4
S21400443017D0386A42214FF6BF7200F0A1F87B6AA7
S2140044405B6C5A1C7B6A5A643B6A0022C3F8D42011
S2140044503B6A03221A61274B1B68EC33184643F06D
S214004460C3FD3B6AD3F8D03003F01003002B1BD0FB
S214004470386A42214FF6EF7200F082F83B6AD3F8B2
S214004480DC3043F040023B6AC3F8DC207B6AD3F89A
S2140044908C305A1C7B6AC3F88C20164B1B6803F5BD
S2140044A02173184643F0A0FD3B6AD3F8D03003F0E2
S2140044B02003002B1BD0386A42214FF6DF7200F033
S2140044C05FF83B6AD3F8DC3043F020023B6AC3F85F
S2140044D0DC207B6AD3F88C305A1C7B6AC3F88C20AD
S2140044E0044B1B6803F52173184643F07DFD3837EF
S2140044F0BD4680BD886D022080B487B000AFF860EE
S214004500B9601346FB80FB685A68BB6813447B613E
S2140045107B691A88FB88DB439BB213409AB27B699F
S2140045201A801C37BD465DF8047B704780B485B0A2
S21400453000AF786039607B685A683B681344FB605C
S214004540FB681B8818461437BD465DF8047B704729
S21400455080B487B000AFF860B9601346FB80FB6894
S2140045605A68BB6813447B617B691A88FB881343CF
S2140045709AB27B691A801C37BD465DF8047B70478B
S21400458080B487B000AFF860B9601346FB80FB6864
S2140045905A68BB6813447B617B69FA881A801C37AB
S2140045A0BD465DF8047B704780B584B000AF786088
S2140045B00023FB607B689022C3F88C20786800F0AC
S2140045C085F9F860FB68002B03D17B680022C3F8EE
S2140045D08C201037BD4680BD80B586B000AF7860B1
S2140045E039607B687B617868396800F02BF8386141
S2140045F03B69002B21D07B6903F5FF73184641F019
S2140046009BF80346FB817B6903F5E373184641F08C
S21400461099F8B860BB68002B0FD07B6803F5E17390
S2140046201B78002B09D0FB894AF65522934204D109
S2140046303B68BA681A60002300E03B6918461837E2
S214004640BD4680BD80B58CB000AF78603960002371
S214004650FB857B68BB627B681B78E92B08D07B6890
S2140046601B78EB2B06D17B6802331B78902B01D18D
S214004670012300E0002387F8273097F8273003F05F
S214004680010387F82730BB6A1633184641F054F802
S2140046903862BB6A2433184641F054F8F8613A6A27
S2140046A0FB691343BB61BB6A1333184641F044F8F9
S2140046B07861BB6A2033184641F044F838617A695D
S2140046C03B691343FB6097F82730002B3FD0FB680D
S2140046D0002B3CD0BB69002B39D07B680C331B7891
S2140046E0FB85FB8D1B029AB27B680B331B789BB253
S2140046F013439BB2FB85FB8D03F01F039BB2002B7D
S21400470002D04CF2513324E0FB8D023BBA6A1344CC
S214004710184641F011F803467B81BB6A03F5FF7328
S214004720184641F009F803463B817B894AF6552234
S214004730934204D03B894AF65522934204D13B6803
S21400474000221A60002304E000BF002301E04CF2C0
S214004750513318463037BD4680BD00BF80B586B0A1
S21400476000AFF860B9607A6000237B610FE0FB68F9
S2140047709B68DB68FA6811687A68084608219847DB
S21400478078617B6801337B60BB68013BBB60BB68BC
S214004790002B02D07B69002BE9D07B6918461837BE
S2140047A0BD4680BD80B586B000AFF860B9607A605F
S2140047B000237B6100233B61FB689B681B68FA68EB
S2140047C01168FA68526808461146984778617B690E
S2140047D0002B01D07B6923E0FB689B68DB68FA68E6
S2140047E0126810460521BA68984778617B69002BE5
S2140047F001D07B6914E0FB689B68DB68FA68116887
S21400480007F1100208460721984778617B69002B5C
S21400481005D13B69002B02D07B6801221A607B69B8
S21400482018461837BD4680BD90B587B000AFF86013
S214004830B9607A6000237B6100233B61FB689B685C
S2140048405C68FB681B681846B96800220123A0470D
S21400485078617B69002B01D07B6933E007F1100398
S214004860B8681946FFF7B8FE78613B69002B17D089
S214004870FB689B685C68FB681A683B691046B96809
S2140048801A460123A04778617B69002B01D07B691B
S21400489018E007F11003B8681946FFF79DFE786127
S2140048A07B69002B02D13B69002B0AD07B68022271
S2140048B01A607B69002B01D07B6903E04CF2513310
S2140048C000E07B6918461C37BD4690BD90B585B0A4
S2140048D000AF78600023FB607B68D3F884301B68E9
S2140048E0BB607B68D3F88830082B00F2858001A275
S2140048F052F823F01949000041490000074A000019
S2140049008349000095490000BF490000694900003E
S214004910D7490000AD490000BB689B685C68BB686F
S21400492018687B68D3F890107B68D3F894207B686F
S2140049301B6F1A447B68D3F89830A047F86063E092
S214004940BB689B689C68BB6818687B68D3F8901047
S2140049507B68D3F894207B681B6F1A447B68D3F877
S2140049609830A047F8604FE07B68D3F898207B68C3
S214004970D3F89430B86811461A46FFF7EFFEF86091
S21400498042E0BB689B681B69BA6812681046984785
S214004990F86039E07B6803F1A8027B68AC33B8683E
S2140049A011461A46FFF7FEFEF8602DE0BB689B68CE
S2140049B01B69BA68126810469847F86024E07B685E
S2140049C0D3F890207B688C33B86811461A46FFF7F8
S2140049D02BFFF86018E0BB689B689C68BB6819688A
S2140049E07B68D3F890207B681B6F084611461A46F2
S2140049F00123A047F86007E07B689022C3F88C206C
S214004A000623FB6000E000BFFB6818461437BD466F
S214004A1090BD00BF80B58EB000AF786039607B680F
S214004A207B6300233B633B685B68FB62FB6A1B6837
S214004A30BB627B6BDB6A204A934201D1082336E0D7
S214004A40BB6A5B6807F10C0210461946182246F04E
S214004A5011FB1A4B7B617B6BBB61BB6A9B681B6857
S214004A60BA6A116807F10C02084611469847786240
S214004A707B6A002B1AD17B6BBA6A5A607B6B083351
S214004A8018460F4924223AF0A7F838633B6B002BF0
S214004A9003D17B6B084ADA6208E0BB6A9B685B68F6
S214004AA0BA6A126810469847642300E07B6A184684
S214004AB03837BD4680BD00BF4F534D42B14C000055
S214004AC0E8EF040090B58DB002AFF860B9607A6088
S214004AD03B60FB683B6200237B610023FB613B6A13
S214004AE05B68BB613B6ADB6A1B4A934201D00723C3
S214004AF02EE0BB699B689C68BB691B681846B96852
S214004B007A683B68A04778627B6A002B01D07B6A94
S214004B101EE03B6A03F1080207F1140442F2107328
S214004B20009310461021012223463AF0B9F8F861A6
S214004B30FB69002B02D064237B6208E07B69102BA4
S214004B4002D100237B6202E049F643437B627B6A24
S214004B5018462C37BD4690BD4F534D4290B58DB08C
S214004B6002AFF860B9607A603B60FB683B62002386
S214004B707B610023FB613B6A5B68BB613B6ADB6A67
S214004B801B4A934201D007232DE0BB699B68DC6873
S214004B90BB691B681846B9687A683B68A0477862A4
S214004BA07B6A002B01D07B6A1DE03B6A03F108029A
S214004BB007F1140442F210730093104610210122EC
S214004BC023463AF06DF8F861FB69002B02D06423A7
S214004BD07B6207E07B69102B02D100237B6201E039
S214004BE018237B627B6A18462C37BD4690BD00BFF3
S214004BF04F534D4280B588B000AFF8600B467A60E0
S214004C00FB72FB68FB61FB695B68BB61FB69DB6A87
S214004C100A4A934201D007230BE0BB699B681B69D5
S214004C20BA691168FA7A084611467A689847786130
S214004C307B6918462037BD4680BD00BF4F534D42A6
S214004C4080B584B000AF78607B68FB60FB685B680B
S214004C50BB60FB68DB6A0C4A934201D007230FE077
S214004C60BB689B685B68BA68126810469847FB6822
S214004C700833184639F0FEFFFB680022DA6200238C
S214004C8018461037BD4680BD4F534D4280B483B0A2
S214004C9000AF7860054B1A687B681A6000231846D8
S214004CA00C37BD465DF8047B704700BFE4EF040098
S214004CB080B584B000AF78607B685B68FB60FB689B
S214004CC00833BB607B681B78102B03D07B681B788F
S214004CD0202B09D1FB680833BB607B681B78B8685B
S214004CE01946002239F0FEFF1037BD4680BD00BFD2
S214004CF090B58FB004AFF860B9607A603B6007F19A
S214004D00080107F1220207F1200407F11C030093B3
S214004D1007F11403019307F110030293F868234682
S214004D2000F0AEFE78627B6A002B01D07B6A68E0FA
S214004D307B8C102B02D13B8C002B02D04FF4C3731C
S214004D405FE03A697B681A60FB69BB607969FA695B
S214004D5007F11803084611461A463B6800F01AF990
S214004D6078627B6A002B01D07B6A4AE07B681A680F
S214004D70BB691A447B681A607A69BB6913447B6115
S214004D80BA68BB69D31ABB607969BA6807F11803B9
S214004D90084611461A463B6800F0BCFA78627B6A01
S214004DA0002B01D07B6A2CE07B681A68BB691A442A
S214004DB07B681A607A69BB6913447B61BA68BB6911
S214004DC0D31ABB607969BA6807F11803084611461A
S214004DD01A463B6800F018FE78627B6A002B01D00A
S214004DE07B6A0EE07B681A68BB691A447B681A60A7
S214004DF03B68D3F8D430012B02D040F20D1300E00C
S214004E00002318462C37BD4690BD00BF90B58FB026
S214004E1004AFF860B9607A603B60BB6B002B04D1CE
S214004E204FF0FF303BF01EFBFAE7391D07F11E027C
S214004E3007F11C0407F11803009307F1140301930C
S214004E4007F110030293F868234600F019FE786213
S214004E507B6A002B04D03B6800221A607B6A95E0D0
S214004E603A69BB691A443B681A60BB68012B40F07C
S214004E708B80BB69002B02D14FF4C17386E07B693F
S214004E801B78002B02D040F283137FE0BB69013B06
S214004E907B607B69581C391D07F11E0207F11C0454
S214004EA007F11803009307F11403019307F11003A9
S214004EB00293234600F0E4FD78627B6A002B05D15E
S214004EC0FB8B102B02D1BB8B002B02D04FF4C2738E
S214004ED05CE07B693B62BB697B60391D07F11E02A3
S214004EE007F11C0407F11803009307F1140301935C
S214004EF007F110030293386A234600F0C1FD78627A
S214004F007B6A002B05D1FB8B022B02D1BB8B002BBF
S214004F1002D040F2851339E07B695A1CBB6BC3F89C
S214004F20D820BB699BB2013B9AB2BB6BA3F8DC20CE
S214004F303A69BB6913443A6AD018391D07F11E0254
S214004F4007F11C0407F11803009307F114030193FB
S214004F5007F110030293234600F092FD78627B6A05
S214004F60002B05D1FB8B022B02D1BB8B002B02D072
S214004F7040F285130AE07A69BB6BC3F8E020BB6990
S214004F809AB2BB6BA3F8E42000BF002318462C3768
S214004F90BD4690BD90B591B004AFF860B9607A6038
S214004FA03B6007F1080107F1260207F1240407F128
S214004FB02003009307F11803019307F114030293EB
S214004FC0F868234600F05CFDF862FB6A002B01D00F
S214004FD0FB6A24E1FB8C102B02D1BB8C002B02D089
S214004FE04FF4C4731BE13B68FA681A633A6A7B693C
S214004FF01A443B685A637A697B681A60B9693A6AE8
S21400500007F11C03084611461A463B6800F00CF9E7
S214005010F862FB6A002B01D0FB6A00E13B6ABB62C8
S214005020BA69FB691344BB61FB69BA6AD31ABB62EF
S2140050307B681A68FB691A447B681A60BA6907F1CC
S2140050401C031046B96A1A463B6800F029F9F86254
S214005050FB6A002B01D0FB6AE1E0BA69FB691344E6
S214005060BB61FB69BA6AD31ABB627B681A68FB69C4
S2140050701A447B681A60BA6907F11C031046B96ABD
S2140050801A463B6800F046F9F862FB6A002B01D02E
S214005090FB6AC4E0BA69FB691344BB61FB69BA6A80
S2140050A0D31ABB627B681A68FB691A447B681A606D
S2140050B0BA6907F11C031046B96A1A463B6800F045
S2140050C0AFF9F862FB6A002B01D0FB6AA7E0BA6969
S2140050D0FB691344BB61FB69BA6AD31ABB627B687F
S2140050E01A68FB691A447B681A60BA6907F11C03E0
S2140050F01046B96A1A463B6800F0CEF9F862FB6AB9
S214005100002B01D0FB6A8AE0BA69FB691344BB61D5
S214005110FB69BA6AD31ABB627B681A68FB691A44D1
S2140051207B681A60BA6907F11C031046B96A1A460A
S2140051303B6800F04BFAF862FB6A002B01D0FB6A72
S2140051406DE0BA69FB691344BB61FB69BA6AD31A9E
S214005150BB627B681A68FB691A447B681A60BA6986
S21400516007F11C031046B96A1A463B6800F06AFA53
S214005170F862FB6A002B01D0FB6A50E0BA69FB6953
S2140051801344BB61FB69BA6AD31ABB627B681A68B0
S214005190FB691A447B681A60BB6A002B01D10023A6
S2140051A03DE0BA6907F11C031046B96A1A463B6827
S2140051B000F030FBF862FB6A002B01D0FB6A2EE0A1
S2140051C07B681A68FB691A447B681A60BA69FB69CF
S2140051D01344BB61FB69BA6AD31ABB627B681A6860
S2140051E0FB691A447B681A60BB6A002B01D1002356
S2140051F015E0BA6907F11C031046B96A1A463B68FF
S21400520000F09CFBF862FB6A002B01D0FB6A06E00C
S2140052107B681A68FB691A447B681A600023184684
S2140052203437BD4690BD00BF90B58FB004AFF86070
S214005230B9607A603B6007F1080107F1220207F1C6
S214005240200407F11C03009307F11803019307F1EC
S21400525014030293F868234600F012FC78627B6A17
S214005260002B01D07B6A17E07B8C002B0DD13B8C8A
S214005270022B0AD1BB691B789AB23B689A807A697E
S214005280FB691A447B681A6005E03B6800229A8036
S2140052907B6800221A60002318462C37BD4690BD56
S2140052A090B58FB004AFF860B9607A603B6007F1E4
S2140052B0080107F1220207F1200407F11C030093FE
S2140052C007F11803019307F114030293F8682346C5
S2140052D000F0D6FB78627B6A002B01D07B6A15E073
S2140052E07B8C022B02D13B8C002B02D040F2891320
S2140052F00CE0BA693B68DA60FB699AB23B681A82CE
S2140053007A69FB691A447B681A60002318462C37B2
S214005310BD4690BD90B591B004AFF860B9607A60B4
S2140053203B60002387F82F307B6800221A6007F165
S214005330080107F1260207F1240407F12003009371
S21400534007F11C03019307F114030293F868234640
S21400535000F096FBB862BB6A002B01D0BB6A5BE02C
S214005360FB8C102B02D1BB8C002B02D040F2891391
S21400537052E03B6ABB607B681A687B691A447B68AC
S2140053801A6044E0F86907F1080107F1260207F100
S214005390240407F12003009307F11C03019307F18F
S2140053A014030293234600F06BFBB862BB6A002B23
S2140053B001D0BB6A30E07B681A6879693B6A0B44A7
S2140053C01A447B681A60FB8C062B0FD1F9693A6A7F
S2140053D007F11803084611461A4600F0C3FDBA69DD
S2140053E03B689A63012387F82F300CE0FB8C052B73
S2140053F006D197F82F30012B01D100230CE009E0ED
S21400540040F2891308E0FA693B6A1344FB61BB6803
S214005410002BB7D140F2871318463437BD4690BDEF
S21400542090B58FB004AFF860B9607A603B6007F162
S214005430080107F1220207F1200407F11C0300937C
S21400544007F11403019307F110030293F86823464B
S21400545000F016FB78627B6A002B01D07B6A17E0AF
S2140054607B8C102B02D13B8C002B02D040F2891390
S2140054700EE07869F9693B68443307F1180200F0DA
S2140054805BFC7862BA693B691A447B681A607B6A7F
S21400549018462C37BD4690BD90B58FB004AFF86067
S2140054A0B9607A603B6007F1080107F11E0207F158
S2140054B01C0407F11803009307F11403019307F186
S2140054C010030293F868234600F0DAFA78627B6AE3
S2140054D0002B01D07B6A75E0FB8B102B02D1BB8BB7
S2140054E0002B02D040F289136CE03A69BB691A447B
S2140054F07B681A60BB69BB603B69FA6813443B6211
S21400550007F1080107F11E0207F11C0407F1180352
S214005510009307F11403019307F110030293386A0E
S214005520234600F0ADFA78627B6A002B01D07B6AD6
S21400553048E0FB8B172B02D0FB8B182B02D1BB8BC2
S214005540002B02D040F289133CE0FA8B3B685A826B
S2140055507A693B685A61BB699AB23B681A83BA6932
S2140055603B6913443A6A13443B6207F1080107F1AA
S2140055701E0207F11C0407F11803009307F1140339
S214005580019307F110030293386A234600F078FA75
S21400559078627B6A002B01D07B6A13E0FB8B172BAB
S2140055A002D0FB8B182B02D1BB8B002B02D040F213
S2140055B0891307E07A693B68DA61BB699AB23B688F
S2140055C01A84002318462C37BD4690BD90B58FB080
S2140055D004AFF860B9607A603B6007F1080107F134
S2140055E0220207F1200407F11C03009307F11403BD
S2140055F0019307F110030293F868234600F040FA7F
S21400560078627B6A002B01D07B6A17E07B8C102BBC
S21400561002D13B8C002B02D040F289130EE0786951
S214005620F9693B68803307F1180200F085FB786261
S214005630BA693B691A447B681A607B6A18462C373D
S214005640BD4690BD90B593B004AFF860B9607A607F
S2140056503B6000233B627B6800221A6007F108016A
S21400566007F12A0207F1280407F12403009307F143
S2140056701C03019307F118030293F868234600F011
S214005680FFF978637B6B002B01D07B6BBEE07B8DD4
S214005690102B02D13B8D002B02D040F28913B5E0CF
S2140056A0FB693B637B681A68BB691A447B681A60AF
S2140056B07B6ABB60F86907F1080107F12A0207F167
S2140056C0280407F12403009307F11C03019307F154
S2140056D018030293234600F0D3F978637B6B002B04
S2140056E001D07B6B92E07B8D102B02D13B8D002B83
S2140056F002D040F2891389E07B681A68BB691A44B5
S2140057007B681A60BA697B6A13443A6B13443B633E
S214005710BB68FB627B6ABB60F86907F1080107F1AA
S2140057202A0207F1280407F12403009307F11C035B
S214005730019307F118030293234600F0A1F978635A
S2140057407B6B002B01D07B6B60E07B681A68B969C5
S2140057507B6A0B441A447B681A607B8D062B53D1F8
S214005760F9697A6A07F11403084611461A4600F0EA
S214005770F9FB7A693B68C3F8D420FA697B6A13445C
S214005780FB61F86907F1080107F12A0207F128040E
S21400579007F12403009307F11C03019307F1180394
S2140057A00293234600F06CF978637B6B002B01D0E4
S2140057B07B6B2BE07B8D052B02D13B8D002B02D023
S2140057C040F2891322E07B681A68B9697B6A0B4449
S2140057D01A447B681A607A6907F120043B680093D4
S2140057E0386B1146FA6A2346FFF710FB78637B6B2B
S2140057F0002B01D07B6B09E07B681A683B6A1A4471
S2140058007B681A60002301E040F2891318463C3793
S214005810BD4690BD90B591B004AFF860B9607A60AF
S2140058203B6007F1080107F1220207F1200407F1A7
S2140058301C03009307F11803019307F11403029366
S214005840F868234600F01CF9B862BB6A002B01D04A
S214005850BB6A6FE07B6800221A60FB687B620023ED
S214005860FB623B8C022B3AD17B8C012B37D1012378
S214005870FB62BB695A1C3B68C3F81421FB699BB2E8
S214005880013B9AB23B68A3F818217B681A687969CD
S214005890FB690B441A447B681A607A69FB691344F7
S2140058A07A6A13447B62BB68002B18D007F10801A4
S2140058B007F1220207F1200407F11C03009307F109
S2140058C01803019307F114030293786A234600F045
S2140058D0D7F8B862BB6A002B01D0BB6A2AE03B8CC3
S2140058E0022B18D17B8C022B15D10123FB62BB69DE
S2140058F05A1C3B68C3F81C21FB699BB2013B9AB259
S2140059003B68A3F820217B681A687969FB690B4419
S2140059101A447B681A60FB6A002B0AD03B689B8897
S214005920012B06D03B689B88022B02D040F28F13D7
S21400593000E0002318463437BD4690BD90B58FB0C2
S21400594004AFF860B9607A603B6007F1080107F1C0
S2140059501E0207F11C0407F11803009307F1140355
S214005960019307F110030293F868234600F088F8C5
S21400597078627B6A002B01D07B6A41E0BB8B022BEE
S21400598002D1FB8B032B01D0002339E03B689B88B8
S214005990022B02D040F28F1332E03A69BB691A44F8
S2140059A07B681A607B693B62BB69BB6007F10801D4
S2140059B007F11E0207F11C0407F11803009307F114
S2140059C01403019307F110030293386A234600F08C
S2140059D057F878627B6A002B01D07B6A10E0BB8B9D
S2140059E0002B02D1FB8B102B01D0002308E07A6934
S2140059F03B68C3F82421BA693B68C3F82821002312
S214005A0018462C37BD4690BD90B58FB004AFF860F1
S214005A10B9607A603B6007F1080107F1220207F1DE
S214005A20200407F11C03009307F11803019307F104
S214005A3014030293F868234600F022F878627B6A23
S214005A40002B01D07B6A16E07B8C032B02D13B8CAB
S214005A50002B02D040F289130DE0BB695A1C3B684C
S214005A60DA63FB695A1E3B681A647A69FB691A4452
S214005A707B681A60002318462C37BD4690BD00BFD1
S214005A8080B489B000AFF860B9607A603B600023EC
S214005A90FB61FA68FB6913441B787B83BB681B6851
S214005AA0002B02D14FF4C173ABE07B8B03F01F03D6
S214005AB01F2B02D140F28113A3E03B6B01221A6038
S214005AC0BB681B685A1EBB681A607B8B03F0C0035A
S214005AD09B119AB23B681A803B681B88012B03D047
S214005AE03B681B88032B02D14FF4C87389E07B8B7D
S214005AF003F02003002B03D07B8B23F020037B8353
S214005B007B8B03F01F039AB27B681A80FB69013314
S214005B10FB61BB681B68002B02D14FF4C17370E0B9
S214005B207B8B052B09D1BB6A01221A60FA68FB69D8
S214005B301A44FB6A1A60002363E0FA68FB691344A0
S214005B401B787B61FB690133FB613B6B1B685A1C4E
S214005B503B6B1A60BB681B685A1EBB681A607B6981
S214005B6003F08003002B32D07B6903F07F033B6198
S214005B7000237B613B69042B04D8BB681A683B6929
S214005B809A4202D24FF4C1733BE03B6B1A683B6902
S214005B901A443B6B1A60BB681A683B69D21ABB682A
S214005BA01A6010E07B691B027B61FA68FB6913448C
S214005BB01B781A467B6913447B61FB690133FB61E2
S214005BC03B69013B3B613B69002BEBD102E0BB6AC2
S214005BD07A691A60BB681A687B699A4202D24FF4E7
S214005BE0C1730EE0BB681A687B69D21ABB681A607C
